{
  "transactions": [
    {
      "hash": "0x9da1a610252aeea1088f5262db175e32fdd14c296d828efe2f57d0ed5a5e5c3f",
      "transactionType": "CALL",
      "contractName": null,
      "contractAddress": "0x5af485092df7f4ecbea7ddb68510116c66983cb2",
      "function": "createPool(address,address,uint256,uint256,uint256,bool,uint256,bool,address,bool)",
      "arguments": [
        "0x55d398326f99059fF775485246999027B3197955",
        "0x21Ee88B269F04A77DdD8920dc96194e852775b87",
        "3000",
        "2592000",
        "1750645800",
        "false",
        "10000000000000000000",
        "true",
        "0x21Ee88B269F04A77DdD8920dc96194e852775b87",
        "false"
      ],
      "transaction": {
        "from": "0xf2734c00aae7a0703a6a46dccab3ef6f9f999638",
        "to": "0x5af485092df7f4ecbea7ddb68510116c66983cb2",
        "gas": "0x50afb",
        "value": "0x0",
        "input": "0x5bb02c8400000000000000000000000055d398326f99059ff775485246999027b319795500000000000000000000000021ee88b269f04a77ddd8920dc96194e852775b870000000000000000000000000000000000000000000000000000000000000bb80000000000000000000000000000000000000000000000000000000000278d00000000000000000000000000000000000000000000000000000000006858bc2800000000000000000000000000000000000000000000000000000000000000000000000000000000000000000000000000000000000000008ac7230489e80000000000000000000000000000000000000000000000000000000000000000000100000000000000000000000021ee88b269f04a77ddd8920dc96194e852775b870000000000000000000000000000000000000000000000000000000000000000",
        "nonce": "0x3",
        "chainId": "0x38"
      },
      "additionalContracts": [],
      "isFixedGasLimit": false
    }
  ],
  "receipts": [
    {
      "status": "0x1",
      "cumulativeGasUsed": "0x2338d4b",
      "logs": [
        {
          "address": "0x5af485092df7f4ecbea7ddb68510116c66983cb2",
          "topics": [
            "0xb203c0a4a9d84ddde23dba31a828c25525b2e0b5fe6a0e356d983aed95961ca1",
            "0x0000000000000000000000000000000000000000000000000000000000000000"
          ],
          "data": "0x00000000000000000000000055d398326f99059ff775485246999027b319795500000000000000000000000021ee88b269f04a77ddd8920dc96194e852775b870000000000000000000000000000000000000000000000000000000000000bb80000000000000000000000000000000000000000000000000000000000278d000000000000000000000000000000000000000000000000008ac7230489e80000",
          "blockHash": "0x36d8600268f1676b5ecf035032e39308cf34ec1baa119f70e1cfae07100dab4c",
          "blockNumber": "0x31873bf",
          "transactionHash": "0x9da1a610252aeea1088f5262db175e32fdd14c296d828efe2f57d0ed5a5e5c3f",
          "transactionIndex": "0xce",
          "logIndex": "0x609",
          "removed": false
        }
      ],
      "logsBloom": "0x00000000000000000000000000000000000000000000000000000000000000000000000000000000000000000000000000000000000000400000000000000000000000000000000008000000000000000000000000000000001004000000000000100000020000000000000000000800000000000000000000000000000000000000000000000000000000000000000000000000000000000000000000040000000000000000000000000000000000000000000000000000000000000000000000000000000000000000000000000000000000000000000000000000000020000000000000000000000000000000000000000000000000000000000000000000",
      "type": "0x0",
      "transactionHash": "0x9da1a610252aeea1088f5262db175e32fdd14c296d828efe2f57d0ed5a5e5c3f",
      "transactionIndex": "0xce",
      "blockHash": "0x36d8600268f1676b5ecf035032e39308cf34ec1baa119f70e1cfae07100dab4c",
      "blockNumber": "0x31873bf",
      "gasUsed": "0x3e076",
      "effectiveGasPrice": "0x5f5e100",
      "from": "0xf2734c00aae7a0703a6a46dccab3ef6f9f999638",
      "to": "0x5af485092df7f4ecbea7ddb68510116c66983cb2",
      "contractAddress": null
    }
  ],
  "libraries": [],
  "pending": [],
  "returns": {},
  "timestamp": 1750645529,
  "chain": 56,
  "commit": "6c5f075"
}