{
  "transactions": [
    {
      "hash": "0x80f2ef90623b8aa59511e833cc19b47a41e126cca2c0204ca61d55431d56ae94",
      "transactionType": "CALL",
      "contractName": null,
      "contractAddress": "0xf548e9ed9bf0fc23910584a9007a45502db2b4b3",
      "function": "createPool(address,address,uint256,uint256,uint256,bool,uint256,bool,address,bool)",
      "arguments": [
        "0x0000000000000000000000000000000000000000",
        "0x21Ee88B269F04A77DdD8920dc96194e852775b87",
        "500",
        "2592000",
        "1750344903",
        "false",
        "1000000000000000000",
        "true",
        "0xF3BD36DaAE2f1756BdCc47F58Eea5BF6a9bb29Ec",
        "true"
      ],
      "transaction": {
        "from": "0xf2734c00aae7a0703a6a46dccab3ef6f9f999638",
        "to": "0xf548e9ed9bf0fc23910584a9007a45502db2b4b3",
        "gas": "0x4e83f",
        "value": "0x0",
        "input": "0x5bb02c84000000000000000000000000000000000000000000000000000000000000000000000000000000000000000021ee88b269f04a77ddd8920dc96194e852775b8700000000000000000000000000000000000000000000000000000000000001f40000000000000000000000000000000000000000000000000000000000278d0000000000000000000000000000000000000000000000000000000000685424c700000000000000000000000000000000000000000000000000000000000000000000000000000000000000000000000000000000000000000de0b6b3a76400000000000000000000000000000000000000000000000000000000000000000001000000000000000000000000f3bd36daae2f1756bdcc47f58eea5bf6a9bb29ec0000000000000000000000000000000000000000000000000000000000000001",
        "nonce": "0xa",
        "chainId": "0x414e"
      },
      "additionalContracts": [],
      "isFixedGasLimit": false
    }
  ],
  "receipts": [
    {
      "status": "0x1",
      "cumulativeGasUsed": "0x3b931",
      "logs": [
        {
          "address": "0xf548e9ed9bf0fc23910584a9007a45502db2b4b3",
          "topics": [
            "0xb203c0a4a9d84ddde23dba31a828c25525b2e0b5fe6a0e356d983aed95961ca1",
            "0x0000000000000000000000000000000000000000000000000000000000000000"
          ],
          "data": "0x000000000000000000000000000000000000000000000000000000000000000000000000000000000000000021ee88b269f04a77ddd8920dc96194e852775b8700000000000000000000000000000000000000000000000000000000000001f40000000000000000000000000000000000000000000000000000000000278d000000000000000000000000000000000000000000000000000de0b6b3a7640000",
          "blockHash": "0x3a35117702fbdcab7a707571801e68c8f015540d37fcef4b5e88698d2d0424eb",
          "blockNumber": "0x233bed5",
          "transactionHash": "0x80f2ef90623b8aa59511e833cc19b47a41e126cca2c0204ca61d55431d56ae94",
          "transactionIndex": "0x0",
          "logIndex": "0x0",
          "removed": false
        }
      ],
      "logsBloom": "0x00000000000000000000000000000000000000000000000000000000000000000000000000000000000000000000000000000000000000400000000000000000000000000000000008000000000000000000000000000000000004000000000000000000020040000000000000000800000000000000000000000000000000000000000000000000000000400000000000000000000000000000000000000000000000000000000000000000000000000000000000000000000000200000000000000000000000000000000000000000000000000000000000000000000020000000000000000000000000000000000000000000000000000000000000000000",
      "type": "0x0",
      "transactionHash": "0x80f2ef90623b8aa59511e833cc19b47a41e126cca2c0204ca61d55431d56ae94",
      "transactionIndex": "0x0",
      "blockHash": "0x3a35117702fbdcab7a707571801e68c8f015540d37fcef4b5e88698d2d0424eb",
      "blockNumber": "0x233bed5",
      "gasUsed": "0x3b931",
      "effectiveGasPrice": "0x0",
      "from": "0xf2734c00aae7a0703a6a46dccab3ef6f9f999638",
      "to": "0xf548e9ed9bf0fc23910584a9007a45502db2b4b3",
      "contractAddress": null
    }
  ],
  "libraries": [],
  "pending": [],
  "returns": {},
  "timestamp": 1750344560,
  "chain": 16718,
  "commit": "6cc1793"
}