{
  "transactions": [
    {
      "hash": "0x23695e4f33dcf38950298814cc037ca78be4f6a2cb400e2003ee59e44c5dbc0a",
      "transactionType": "CALL",
      "contractName": null,
      "contractAddress": "0x5af485092df7f4ecbea7ddb68510116c66983cb2",
      "function": "createPool(address,address,uint256,uint256,uint256,bool,uint256,bool,address)",
      "arguments": [
        "0x5AF485092Df7F4EcbeA7dDB68510116C66983CB2",
        "0x21Ee88B269F04A77DdD8920dc96194e852775b87",
        "500",
        "2592000",
        "1750342803",
        "false",
        "1000000000000000000",
        "true",
        "0xF3BD36DaAE2f1756BdCc47F58Eea5BF6a9bb29Ec"
      ],
      "transaction": {
        "from": "0xf2734c00aae7a0703a6a46dccab3ef6f9f999638",
        "to": "0x5af485092df7f4ecbea7ddb68510116c66983cb2",
        "gas": "0x556b7",
        "value": "0x0",
        "input": "0xdecf808d0000000000000000000000005af485092df7f4ecbea7ddb68510116c66983cb200000000000000000000000021ee88b269f04a77ddd8920dc96194e852775b8700000000000000000000000000000000000000000000000000000000000001f40000000000000000000000000000000000000000000000000000000000278d000000000000000000000000000000000000000000000000000000000068541c9300000000000000000000000000000000000000000000000000000000000000000000000000000000000000000000000000000000000000000de0b6b3a76400000000000000000000000000000000000000000000000000000000000000000001000000000000000000000000f3bd36daae2f1756bdcc47f58eea5bf6a9bb29ec",
        "nonce": "0x4",
        "chainId": "0x414e"
      },
      "additionalContracts": [],
      "isFixedGasLimit": false
    }
  ],
  "receipts": [
    {
      "status": "0x1",
      "cumulativeGasUsed": "0x3f82e",
      "logs": [
        {
          "address": "0x5af485092df7f4ecbea7ddb68510116c66983cb2",
          "topics": [
            "0xb203c0a4a9d84ddde23dba31a828c25525b2e0b5fe6a0e356d983aed95961ca1",
            "0x0000000000000000000000000000000000000000000000000000000000000000"
          ],
          "data": "0x0000000000000000000000005af485092df7f4ecbea7ddb68510116c66983cb200000000000000000000000021ee88b269f04a77ddd8920dc96194e852775b8700000000000000000000000000000000000000000000000000000000000001f40000000000000000000000000000000000000000000000000000000000278d000000000000000000000000000000000000000000000000000de0b6b3a7640000",
          "blockHash": "0x497598e9592676c68ff58fc6686f5cfd2a798a59d9d53ea5193e7fd31c0de8c2",
          "blockNumber": "0x233bc9f",
          "transactionHash": "0x23695e4f33dcf38950298814cc037ca78be4f6a2cb400e2003ee59e44c5dbc0a",
          "transactionIndex": "0x0",
          "logIndex": "0x0",
          "removed": false
        }
      ],
      "logsBloom": "0x00000000000000000000000000000000000000000000000000000000000000000000000000000000000000000000000000000000000000400000000000000000000000000000000008000000000000000000000000000000001004000000000000100000020000000000000000000800000000000000000000000000000000000000000000000000000000000000000000000000000000000000000000040000000000000000000000000000000000000000000000000000000000000000000000000000000000000000000000000000000000000000000000000000000020000000000000000000000000000000000000000000000000000000000000000000",
      "type": "0x0",
      "transactionHash": "0x23695e4f33dcf38950298814cc037ca78be4f6a2cb400e2003ee59e44c5dbc0a",
      "transactionIndex": "0x0",
      "blockHash": "0x497598e9592676c68ff58fc6686f5cfd2a798a59d9d53ea5193e7fd31c0de8c2",
      "blockNumber": "0x233bc9f",
      "gasUsed": "0x3f82e",
      "effectiveGasPrice": "0x0",
      "from": "0xf2734c00aae7a0703a6a46dccab3ef6f9f999638",
      "to": "0x5af485092df7f4ecbea7ddb68510116c66983cb2",
      "contractAddress": null
    }
  ],
  "libraries": [],
  "pending": [],
  "returns": {},
  "timestamp": 1750341516,
  "chain": 16718,
  "commit": "6cc1793"
}