{
  "transactions": [
    {
      "hash": "0x8b7695612506422922ee4be2f7747f631f36bfc9583179bd9924b0ba066b0eb8",
      "transactionType": "CALL",
      "contractName": null,
      "contractAddress": "0x0d7414b1d7dd58ce4dd3b8a26ab3c2fcf1add5ed",
      "function": "createPool(address,address,uint256,uint256,uint256,bool,uint256,bool,address,bool)",
      "arguments": [
        "0xA0b86991c6218b36c1d19D4a2e9Eb0cE3606eB48",
        "0x21Ee88B269F04A77DdD8920dc96194e852775b87",
        "3000",
        "2592000",
        "1750633800",
        "false",
        "1000000000000000000",
        "true",
        "0x21Ee88B269F04A77DdD8920dc96194e852775b87",
        "false"
      ],
      "transaction": {
        "from": "0xf2734c00aae7a0703a6a46dccab3ef6f9f999638",
        "to": "0x0d7414b1d7dd58ce4dd3b8a26ab3c2fcf1add5ed",
        "gas": "0x50afb",
        "value": "0x0",
        "input": "0x5bb02c84000000000000000000000000a0b86991c6218b36c1d19d4a2e9eb0ce3606eb4800000000000000000000000021ee88b269f04a77ddd8920dc96194e852775b870000000000000000000000000000000000000000000000000000000000000bb80000000000000000000000000000000000000000000000000000000000278d000000000000000000000000000000000000000000000000000000000068588d4800000000000000000000000000000000000000000000000000000000000000000000000000000000000000000000000000000000000000000de0b6b3a7640000000000000000000000000000000000000000000000000000000000000000000100000000000000000000000021ee88b269f04a77ddd8920dc96194e852775b870000000000000000000000000000000000000000000000000000000000000000",
        "nonce": "0x3",
        "chainId": "0x1"
      },
      "additionalContracts": [],
      "isFixedGasLimit": false
    }
  ],
  "receipts": [
    {
      "status": "0x1",
      "cumulativeGasUsed": "0xd71afd",
      "logs": [
        {
          "address": "0x0d7414b1d7dd58ce4dd3b8a26ab3c2fcf1add5ed",
          "topics": [
            "0xb203c0a4a9d84ddde23dba31a828c25525b2e0b5fe6a0e356d983aed95961ca1",
            "0x0000000000000000000000000000000000000000000000000000000000000000"
          ],
          "data": "0x000000000000000000000000a0b86991c6218b36c1d19d4a2e9eb0ce3606eb4800000000000000000000000021ee88b269f04a77ddd8920dc96194e852775b870000000000000000000000000000000000000000000000000000000000000bb80000000000000000000000000000000000000000000000000000000000278d000000000000000000000000000000000000000000000000000de0b6b3a7640000",
          "blockHash": "0x7b7f77de8847f10257868b566a0be0d65b89baf2409b71014d010e9725cf3175",
          "blockNumber": "0x15b5662",
          "transactionHash": "0x8b7695612506422922ee4be2f7747f631f36bfc9583179bd9924b0ba066b0eb8",
          "transactionIndex": "0x95",
          "logIndex": "0xca",
          "removed": false
        }
      ],
      "logsBloom": "0x00000000000000000000000000000000000000000000000000000000000000000000000000000000000000000000000000000000000000400000000000000000000000000000000008000000000000000000000000000000000004000000000000000000020000000000000000000800000000000000000000002000000000000000000000000080000000000000000000000000000000000000000000000000000000000000200000000000000000000000000000000000000000000000000000000000000000000000000000000000000000000000000000000000000020000000000000000000000000000000000000000000000000000000000000000000",
      "type": "0x2",
      "transactionHash": "0x8b7695612506422922ee4be2f7747f631f36bfc9583179bd9924b0ba066b0eb8",
      "transactionIndex": "0x95",
      "blockHash": "0x7b7f77de8847f10257868b566a0be0d65b89baf2409b71014d010e9725cf3175",
      "blockNumber": "0x15b5662",
      "gasUsed": "0x3e076",
      "effectiveGasPrice": "0x6f78ca26",
      "from": "0xf2734c00aae7a0703a6a46dccab3ef6f9f999638",
      "to": "0x0d7414b1d7dd58ce4dd3b8a26ab3c2fcf1add5ed",
      "contractAddress": null
    }
  ],
  "libraries": [],
  "pending": [],
  "returns": {},
  "timestamp": 1750633069,
  "chain": 1,
  "commit": "6c5f075"
}