{
  "transactions": [
    {
      "hash": "0x74510ef3836debbe05b2d37880096be83c4f4730d45d38705d52bb9a6277a443",
      "transactionType": "CALL",
      "contractName": null,
      "contractAddress": "0x5af485092df7f4ecbea7ddb68510116c66983cb2",
      "function": "createPool(address,address,uint256,uint256,uint256,bool,uint256,bool,address,bool)",
      "arguments": [
        "0xF3BD36DaAE2f1756BdCc47F58Eea5BF6a9bb29Ec",
        "0x21Ee88B269F04A77DdD8920dc96194e852775b87",
        "3000",
        "2592000",
        "1750378200",
        "false",
        "1000000000000000000",
        "true",
        "0x0d7414B1D7dD58cE4dd3b8A26aB3c2FCF1aDD5eD",
        "false"
      ],
      "transaction": {
        "from": "0xf2734c00aae7a0703a6a46dccab3ef6f9f999638",
        "to": "0x5af485092df7f4ecbea7ddb68510116c66983cb2",
        "gas": "0x50afb",
        "value": "0x0",
        "input": "0x5bb02c84000000000000000000000000f3bd36daae2f1756bdcc47f58eea5bf6a9bb29ec00000000000000000000000021ee88b269f04a77ddd8920dc96194e852775b870000000000000000000000000000000000000000000000000000000000000bb80000000000000000000000000000000000000000000000000000000000278d00000000000000000000000000000000000000000000000000000000006854a6d800000000000000000000000000000000000000000000000000000000000000000000000000000000000000000000000000000000000000000de0b6b3a764000000000000000000000000000000000000000000000000000000000000000000010000000000000000000000000d7414b1d7dd58ce4dd3b8a26ab3c2fcf1add5ed0000000000000000000000000000000000000000000000000000000000000000",
        "nonce": "0x4",
        "chainId": "0x61"
      },
      "additionalContracts": [],
      "isFixedGasLimit": false
    }
  ],
  "receipts": [
    {
      "status": "0x1",
      "cumulativeGasUsed": "0x7df42",
      "logs": [
        {
          "address": "0x5af485092df7f4ecbea7ddb68510116c66983cb2",
          "topics": [
            "0xb203c0a4a9d84ddde23dba31a828c25525b2e0b5fe6a0e356d983aed95961ca1",
            "0x0000000000000000000000000000000000000000000000000000000000000000"
          ],
          "data": "0x000000000000000000000000f3bd36daae2f1756bdcc47f58eea5bf6a9bb29ec00000000000000000000000021ee88b269f04a77ddd8920dc96194e852775b870000000000000000000000000000000000000000000000000000000000000bb80000000000000000000000000000000000000000000000000000000000278d000000000000000000000000000000000000000000000000000de0b6b3a7640000",
          "blockHash": "0x47f278dfa37921c8f10164e06490bb4060951f9a0444c981f2cc778796165a63",
          "blockNumber": "0x34d4ff4",
          "transactionHash": "0x74510ef3836debbe05b2d37880096be83c4f4730d45d38705d52bb9a6277a443",
          "transactionIndex": "0x1",
          "logIndex": "0x5",
          "removed": false
        }
      ],
      "logsBloom": "0x00000000000000000000000000000000000000000000000000000000000000000000000000000000000000000000000000000000000000400000000000000000000000000000000008000000000000000000000000000000001004000000000000100000020000000000000000000800000000000000000000000000000000000000000000000000000000000000000000000000000000000000000000040000000000000000000000000000000000000000000000000000000000000000000000000000000000000000000000000000000000000000000000000000000020000000000000000000000000000000000000000000000000000000000000000000",
      "type": "0x0",
      "transactionHash": "0x74510ef3836debbe05b2d37880096be83c4f4730d45d38705d52bb9a6277a443",
      "transactionIndex": "0x1",
      "blockHash": "0x47f278dfa37921c8f10164e06490bb4060951f9a0444c981f2cc778796165a63",
      "blockNumber": "0x34d4ff4",
      "gasUsed": "0x3e076",
      "effectiveGasPrice": "0x5f5e100",
      "from": "0xf2734c00aae7a0703a6a46dccab3ef6f9f999638",
      "to": "0x5af485092df7f4ecbea7ddb68510116c66983cb2",
      "contractAddress": null
    }
  ],
  "libraries": [],
  "pending": [],
  "returns": {},
  "timestamp": 1750378007,
  "chain": 97,
  "commit": "6cc1793"
}